:10000000C82F0020D53C0000D13C0000D13C0000AE
:1000100000000000000000000000000000000000E0
:10002000000000000000000000000000D13C0000C3
:100030000000000000000000D13C0000D13C0000A6
:10004000D13C0000D13C0000D50E00000934000076
:10005000D13C0000D13C000019150000E10B00006C
:10006000D13C0000D13C0000D13C0000D13C00005C
:10007000D13C0000D13C0000D13C0000D13C00004C
:10008000D13C0000E9140000F91400000000000059
:100090000000000009150000D13C0000D13C000028
:1000A000D13C0000D13C0000D13C0000D13C00001C
:1000B0000000000010B5064C2378002B07D1054B3B
:1000C000002B02D0044800E000BF0123237010BDC4
:1000D00018000020000000003843000008B5084B5D
:1000E000002B03D00748084900E000BF0748036819
:1000F000002B00D108BD064B002BFBD09847F9E739
:1001000000000000384300001C00002038430000BD
:1001100000000000F0B587B002AC201C1B49022291
:100120001B4B984703AB48221A8000221A725A725E
:1001300002215980049401A980230B70CA707F3B6F
:100140004B7002238B700F20124B984780221202B3
:10015000114B9A610025114C114F124E06E06B1C99
:100160009BB20E4A1289AA4206D01D1C201C03A96C
:10017000B84730700028F2D180221202064B5A6133
:100180000022094B1A7007B0F0BDC046584200006B
:1001900045420000713C0000002800405C0D00203A
:1001A00079140000DC0D0020DA0C0020F0B5474681
:1001B00080B484B080462E236A4613706B46587014
:1001C00001AB53221A8000221A725A7201325A80ED
:1001D0006A4602920026214C214D224F06E0731CF4
:1001E0009BB21E4A1289B24210D01E1C201C01A9CB
:1001F000A84738700028F2D1002608E0731C9BB293
:10020000164A1289B2420BD01E1C03E00026134C82
:10021000154D144F201C01A9A84738700028EDD1B6
:100220006B461B78424693436A4653702E231370E5
:1002300000250A4C0A4F0B4E06E06B1C9BB2074A86
:100240001289AA4206D01D1C201C01A9B847307093
:100250000028F2D104B004BC9046F0BD5C0D002033
:1002600079140000DC0D002065140000F0B587B0A3
:1002700002AC242525706070272401A80470481E54
:1002800081418801111C4A1E9141490101435A1EB6
:1002900093411B010B4301AA537003AB53221A80F5
:1002A00000221A725A7202325A8002AA049200255F
:1002B0002D4C2E4F2E4E06E06B1C9BB22A4A128903
:1002C000AA4206D01D1C201C03A9B8473070002884
:1002D000F2D103AB01225A8001AA04920025224CDC
:1002E000224F234E06E06B1C9BB21F4A1289AA4282
:1002F00010D01D1C201C03A9B84730700028F2D173
:10030000002508E06B1C9BB2174A1289AA420BD049
:100310001D1C03E00025144C164F154E201C03A98C
:10032000B84730700028EDD101AB19785A780A43EC
:100330005A7027221A7003AA0221518004930025C3
:10034000094C0A4F0A4E06E06B1C9BB2064A128902
:10035000AA4206D01D1C201C03A9B84730700028F3
:10036000F2D107B0F0BDC0465C0D0020791400004A
:10037000DC0D002065140000F0B587B00CAC2478CB
:1003800002AD25262E70687001A8262505704170E3
:10039000272168460170511E8A419200191C4B1E8C
:1003A000994149002243131C0B43437003AB532272
:1003B0001A8000221A725A7202325A8002AA0492D9
:1003C0000025384C384F394E06E06B1C9BB2354A3D
:1003D0001289AA4206D01D1C201C03A9B847307000
:1003E0000028F2D101AB049300252E4C2E4F2F4E46
:1003F00006E06B1C9BB22B4A1289AA4206D01D1C38
:10040000201C03A9B84730700028F2D103AB0122A9
:100410005A806A4604920025224C234F234E06E060
:100420006B1C9BB21F4A1289AA4210D01D1C201CB3
:1004300003A9B84730700028F2D1002508E06B1CF2
:100440009BB2184A1289AA420BD01D1C03E000255A
:10045000144C174F154E201C03A9B84730700028C4
:10046000EDD16B461A785B7813436A4653702723A5
:10047000137003AB02225A806A4604920025094C8D
:10048000094F0A4E06E06B1C9BB2064A1289AA422B
:1004900006D01D1C201C03A9B84730700028F2D1DB
:1004A00007B0F0BD5C0D002079140000DC0D0020C9
:1004B00065140000F0B587B002AD1E4C281C211C4D
:1004C00002221D4EB047211D01A80222B04703ABF6
:1004D00053221A8000221A725A7202325A800495EC
:1004E0000024164D164F174E06E0631C9BB2134AAC
:1004F0001289A24207D01C1C281C03A9B8473070DF
:100500000028F2D100E01C1C01AB04930B4D0C4FF2
:100510000C4E06E0631C9BB2084A1289A24206D028
:100520001C1C281C03A9B84730700028F2D107B062
:10053000F0BDC0465C420000454200005C0D00205A
:1005400079140000DC0D0020F0B585B06846114933
:1005500008310222104B984701AB53221A80002227
:100560001A725A7202325A806A46029200250B4C65
:100570000B4F0C4E06E06B1C9BB2084A1289AA4234
:1005800006D01D1C201C01A9B84730700028F2D1EC
:1005900005B0F0BD5C420000454200005C0D00204B
:1005A00079140000DC0D0020F0B54F4680B488B00F
:1005B00004A88A490C310322894B98470F216944CA
:1005C00039230B7001AB00221A705A709A7005AB78
:1005D000532018801A725A7201325A800691814B48
:1005E0009847814B013B002BFCD1804B98477E4BB9
:1005F000013B002BFCD100247D4D7E4F7E4E06E05A
:10060000631C9BB27A4A1289A2420FD01C1C281C80
:1006100005A9B84730700028F2D108E0631C9BB2EE
:10062000734A1289A2420CD01C1C03E01C1C704DA2
:10063000724F714E281C05A9B84730700028EDD1C3
:1006400000E01C1C05AB03225A8004AA0692684DE8
:10065000684F694E06E0631C9BB2654A1289A2424C
:1006600007D01C1C281C05A9B84730700028F2D1FF
:1006700000E01C1C05AB03225A8002AA06920F233D
:100680006B441B7899460025002B08DC29E0631C8D
:100690009BB2574A1289A2420AD01C1C01E0574F54
:1006A000554E534805A9B84730700028EFD100E0F7
:1006B0001C1C01AB187802A90A788218D2B21A70F1
:1006C00058784A788218D2B25A7098788A78821804
:1006D000D2B29A7001350F236B441B789946AB4216
:1006E000DFDC01AD287840B2454E4946B047C0B284
:1006F0002870687840B24946B047C0B26870A878A0
:1007000040B24946B047C0B2A87005AB02225A8039
:100710006A4606921E2313702B785370344D354F62
:10072000354E06E0631C9BB2314A1289A24206D0C4
:100730001C1C281C05A9B84730700028F2D10222E1
:1007400005AB5A801F236A46137001AB5B78537068
:100750000025274C274F284E06E06B1C9BB2244AED
:100760001289AA4206D01D1C201C05A9B84730706A
:100770000028F2D120236A46137001AB9B78537096
:1007800000251B4C1B4F1C4E06E06B1C9BB2184AED
:100790001289AA4206D01D1C201C05A9B84730703A
:1007A0000028F2D1012205AB5A801F236A4613703C
:1007B00000250F4C0F4F104E06E06B1C9BB20C4AED
:1007C0001289AA4206D01D1C201C05A9B84730700A
:1007D0000028F2D108B004BC9146F0BD5C42000094
:1007E00045420000B5040000FFFF0000490500007D
:1007F0005C0D002079140000DC0D00206514000061
:10080000813F0000F0B58BB006AE654C211C103165
:10081000301C0222634DA847211C143105A8022276
:10082000A847211C183104A80222A847211C1C310A
:1008300003A80222A8475C4B98470520012101220A
:1008400001235A4CA047012300930720FF210122D6
:10085000574CA04707AB53221A8000221A725A72D3
:1008600002325A8008960025524C534F534E06E0F0
:100870006B1C9BB24F4A1289AA4206D01D1C201C39
:1008800007A9B84730700028F2D105AB08930025BE
:10089000484C494F494E06E06B1C9BB2454A1289B1
:1008A000AA4206D01D1C201C07A9B847307000289A
:1008B000F2D104AB089300253E4C3F4F3F4E06E07B
:1008C0006B1C9BB23B4A1289AA4206D01D1C201CFD
:1008D00007A9B84730700028F2D103AB0893002570
:1008E000344C354F354E06E06B1C9BB2314A1289B1
:1008F000AA4206D01D1C201C07A9B847307000284A
:10090000F2D102A900244C70CC700C708C701020B5
:100910002B4B98472B4A516A2B4B0B4053622B4B66
:100920001C702B4902220B681A42FCD1294B1A6811
:1009300001210A431A601B6819422ED0264B1A68FF
:1009400007318A431A601A6804390A431A601B681F
:10095000194203D1204B1B681B071ED41F4B1A687A
:1009600001210A431A601B68194216D00222174B54
:100970001A7017490B681A42FCD1144B1B789B075D
:100980000BD5174800210022164B9847002804D1A8
:100990000022154B1A80154B1A700BB0F0BDC046E3
:1009A0005C42000045420000A90500006D02000005
:1009B000790300005C0D002079140000DC0D00209C
:1009C000713C000000280040FFFFFEFF00240040B3
:1009D00004240040102400401C240040182400403F
:1009E000C10A0000DD330000CC0C0020DD0C00202B
:1009F000F0B55F464E464546E0B488B0041C0D1C79
:100A000001A8294920310622284B984705AB5322DB
:100A10001A8000221A725A72002D3FDDA346A146A9
:100A2000A9440024224E234F05AB06225A8001AA76
:100A3000069206E0631C9BB21F4A1289A24207D0AD
:100A40001C1C1D4805A9B04738700028F2D100E0F1
:100A50001C1C05AB06225A8003AA0692174B984627
:100A6000144D06E0631C9BB2134A1289A24207D0C0
:100A70001C1C114805A9C04728700028F2D100E0CD
:100A80001C1C03AB5A7859460A70DA784A705B79B5
:100A90008B7001239C46E344CB45C5D108B01CBCF8
:100AA00090469946A346F0BD5C42000045420000D6
:100AB00079140000DC0D00205C0D0020651400009E
:100AC000F0B585B06B46DA1C3023137001AB5321AF
:100AD0001980002119725972013159800292002443
:100AE000334D344F344E06E0631C9BB2304A1289BA
:100AF000A2420FD01C1C281C01A9B8473070002846
:100B0000F2D108E0631C9BB2294A1289A2420BD0A1
:100B10001C1C03E01C1C264D284F274E281C01A935
:100B2000B84730700028EDD16B4603331B78DB06E5
:100B300035D5234A1378013B591E8B411370214B45
:100B400098472CE02024204D204F214E2888431C1C
:100B50002B8000B2C0190121B047013C002CF5D117
:100B6000194B1B88DB0701D41A4B98476B4603339C
:100B70001B781B0719D5184A13780133DBB21370A1
:100B8000022B04D90E4A137859424B4113700C4B77
:100B90001B78012B09D10820104B984705E06B46C4
:100BA00003331B789B07CDD4E0E705B0F0BDC0460A
:100BB0005C0D002079140000DC0D0020651400009D
:100BC000B80D0020B5040000CC0C0020CC000020A3
:100BD000F109000049050000DD0C0020AD01000016
:100BE00010B50C4B1C698621C9058A6998680243B7
:100BF0009A60094B8B61002C05D020686368984788
:100C0000A468002CF9D1034BD9689A688A439A608A
:100C100010BDC04600000020FF0FFF0F06490B6A01
:100C2000012213430B628623DB051A70191C0B7813
:100C30001342FCD17047C04600040040064A1178B8
:100C400002230B4313700221012053681942FCD187
:100C500053681842F9D170470024004000B583B0B2
:100C6000184A5369802189000B43536101A902236B
:100C70000B700320144B98470320144B9847144AD9
:100C8000117801230B43137002210120536819428C
:100C9000FCD15368184209D0F8E704C38B42FCD159
:100CA00008220C4B1A600C4B984709E0084A13784D
:100CB00010218B431370094B191C40310022ECE7C3
:100CC00003B000BD00040040753B00000D3B000078
:100CD0000024004000E100E03D0C0000700E002008
:100CE00002680421074B196001680B69002BFCD1D5
:100CF000118802330B43138002681369002BFCD167
:100D00007047C04600E100E010B50268042480236B
:100D10000749CC5001680B69002BFCD113880221D4
:100D20008B43138002681369002BFCD110BDC046B1
:100D300000E100E038B5041C0568094B9847002322
:100D40002386638622681369002BFCD12A8801332D
:100D500013432B8022681369002BFCD138BDC04699
:100D6000090D000010B5CB88C2889B1A9A060B7932
:100D70005C044B799B0523438C7824032343134362
:100D80000279002A05D1CA78002A02D080225202B4
:100D90001343487880010A781043184310BDC046B9
:100DA00038B5041C0568054B98472B69002BFCD10E
:100DB000A86122681369002BFCD138BD650D0000C5
:100DC000F8B506681723012A15D8141C0D1C071C3A
:100DD0000A4B98473369002BFCD1E200B21810622D
:100DE00039680B69002BFCD1297A2433D1543A6835
:100DF0001369002BFCD1181CF8BDC046650D00001E
:100E000038B5051C141C0160134A53698021490040
:100E10000B4353610022114B1A61114B9847E37841
:100E20002B71A388EB800F4B1D602A682388E17823
:100E3000002902D008210B4301E048210B43A1788F
:100E4000002901D080210B431380A11D281C002202
:100E5000054B984738BDC0460004004000100040D4
:100E6000350D0000B00E0020C10D0000092A01D987
:100E700017200AE0931C9B001950018E0123934018
:100E80001A1C0A4392B202860020704710B503680C
:100E9000092902D10E4A5A8111E0072905D80122F9
:100EA0008A40FF2422405A8109E0802252000C1C13
:100EB000083CA240141C8022520022405A81428EDB
:100EC00001238B40191C114389B2418610BDC046D5
:100ED0000080FFFFF8B55F4656464D464446F0B4E5
:100EE000234B1B689A461E685B8E5246128E1A4030
:100EF0009046B389728913401AB2002A08DA434631
:100F00009B0502D55346DB6A98471A4BB38128E00C
:100F1000FF271F401AD0002401239946FE339B4629
:100F2000231C4D46A5402F4209D042462241494646
:100F3000114204D002339B0052469B5898475B46AF
:100F40001D40B5810134082CEAD10AE0DB0508D543
:100F50004346DB0502D553469B6A984780235B00D6
:100F6000B3813CBC90469946A246AB46F8BDC0460C
:100F7000B00E00200080FFFF01680722CB691A42F3
:100F8000FCD17047F0B54F464646C0B483B0071C4D
:100F90000D1C161C3960081C6B4B9847052800D1A6
:100FA000BAE0041C12346949CB6901228240101C4A
:100FB0001843C86101A9337B0B70E4B2201C644B59
:100FC0009847201C634B9847307B0021624B984721
:100FD0002B681C209B0700D5B0E02B681738DB0777
:100FE00000D5ABE014232B603D68281C564B984776
:100FF000804680236A46137000235370012269469D
:101000008A70CB70F069346A002803D1281C002153
:10101000524B98476B46187002236A465370000C77
:10102000C0B269464E4B9847002C04D1281C0121C0
:101030004A4B9847041C6B461C7002236A46537047
:10104000240CE0B26946464B9847B38AFB80F38A8A
:101050003B81327E8023002A04D1424B9B789B0740
:10106000DB0FDB013269002A00D01343B26813435F
:101070002422B25C002A02D08022D2051343B26A35
:10108000002A00D013432C22B25C002A02D0802216
:10109000120513432D22B25C002A02D080221204D2
:1010A00013432E22B25C002A02D08022D2031343C3
:1010B0002A6813432B6080235B006B60474612371E
:1010C000FBB29846181C284B9847041CFA20800055
:1010D0003368434399465F00308E60432349244B75
:1010E00098470A304B465843201AC0190138391C1A
:1010F000204B9847041EFF2C1FD840461A4B984798
:101100007168FA23DB0059434B1E1818184B984797
:101110000138FF2811D806E00C4A116A02230B435C
:101120001362182446E70004FF231B041840FF2322
:101130001C400443EC60002000E0402003B00CBCE5
:1011400090469946F0BDC046A1330000000400401F
:10115000753B00000D3B0000E93100003532000016
:10116000713C000000200041993B000000CA9A3BFE
:10117000613E0000813F000003681A7E920707D598
:1011800002221A765B8B9B074120DB1718400AE08E
:101190005A8B520706D55A68C02189020A435A6001
:1011A000182000E00020704730B5026800230124B9
:1011B000022504E001339BB20189994207D9117ECF
:1011C000214206D1117E2942F4D0002002E01220F3
:1011D00000E0002030BDC04610B50468636880227E
:1011E000D202134363606162024B98470123237666
:1011F00010BDC046A9110000F0B55F4656464D46E9
:101200004446F0B483B0061C894605684C882B68B8
:101210001B01DB0F9A464B7A002B02D0897A4F4B89
:1012200098476A684E4B13406B604B461B7A002B05
:1012300026D04B465B7A9A034B461B885B001343D0
:101240008022120213436B62301C464B98476A6837
:10125000434B13406B60031E78D1301C424B9847C0
:10126000031E73D14B465B7A9B03012213434A460C
:101270001288120A78210A43520013436B6209E074
:101280004B461B885A004B465B7A9B031343012253
:1012900013436B62301C334B98476A68304B1340E2
:1012A0006B60031E52D1301C2F4B98470190031ED8
:1012B0004CD1013CA4B2002398462C4B9B4629E01C
:1012C0006B8B9B0641D5F37A002B0FD05346002B36
:1012D00002D1002C02D009E0012C07D16B688022DA
:1012E000D20213436B60013CA4B213E0301C204BCC
:1012F000984743465F1CBFB22823EB5C4A465268BE
:1013000041465354301C174B9847013CA4B2002867
:1013100003D1B8465C45D3D101E0B8460190B37A19
:10132000002B07D0301C124B98476B68C0229202EA
:1013300013436B60301C0E4B98472823EA5C4B46E6
:101340005B6841465A54019B00E04123181C03B0DE
:101350003CBC90469946A246AB46F0BDD911000070
:10136000FFFFFBFFA911000079110000FFFF000043
:10137000790F0000F0B55F4656464D464446F0B43E
:1013800083B0061C0F1C05684C88314B98477B7A4C
:10139000002B03D0B97A301C2E4B98476A682E4B2D
:1013A00013406B603B7A002B09D07B7A9A033B8811
:1013B0005B0013438022120213436B6205E07B7AC9
:1013C0009A033B885B0013436B62301C234B9847A6
:1013D000031E36D1301C224B9847031E019030D19A
:1013E000A046002420339946194B9B461B4B9A4636
:1013F00011E06B8B4A46134222D0301CD8477B68E1
:101400001A5D2823EA54301CD047002806D16B8B84
:1014100001345B0704D44445EBD103E0019001E0C3
:101420001E230193B37A0198002B0AD0301C084B7D
:1014300098476B68C022920213436B60019800E0EA
:10144000412003B03CBC90469946A246AB46F0BD55
:10145000790F0000D9110000FFFFFBFFA911000068
:101460007911000008B501238372C372014B9847BC
:1014700008BDC046F911000008B501238372C3728C
:10148000014B984708BDC0467513000038B5800071
:10149000144BC5582B689C7A2B7E1C406B7E1C40DD
:1014A000E30705D5281CAB68984701232A68937287
:1014B000A30705D5281CEB68984702232A68937276
:1014C000E30605D5281C2B69984710232A689372D8
:1014D000A30605D5281C6B6998472B6820229A72B1
:1014E00038BDC046B40E002008B50020014B984717
:1014F00008BDC0468D14000008B50120014B984777
:1015000008BDC0468D14000008B50220014B984765
:1015100008BDC0468D140000F0B55F4656464D46E6
:101520004446F0B483B0C84B1F683D682B78DB0994
:1015300000D154E1288C80B2C44B9847041E1F2C64
:1015400000D9D2E0031C08335B01ED18ED79EDB250
:10155000AB0750D0BE4A0123834011689943116004
:10156000031C08335B013A68944663440322DA7132
:101570003B18A8339B79DB073DD5B64B18703A680A
:10158000031C08335B019B5C03221340012B10D129
:101590004201B14B9B185A689204920CAD494A80A3
:1015A0005A681201920C8A805A68920B92035A6010
:1015B00019E04301A84AD3185A681201920CA548B1
:1015C000428059688904890C81805868A349014088
:1015D0005960002A07D163019F4AD3185B689B04B6
:1015E0009B0C9C4A5380984B1868A31C1B01C31882
:1015F0005B68984998476B070ED5954A0123A3402D
:10160000116899431160904B1B681A68231C0833BA
:101610005B01D3180422DA712B0721D58C4A0123F0
:10162000A340116899431160874B1868231C083345
:101630005B010268944663440822DA710319A833F7
:101640009B799B070CD583490C706301824AD318A0
:10165000DA891F2313404B702301C3189B6A9847F4
:10166000EB0622D57A4A0123A34011689943116001
:10167000754B1868231C08335B0102689446634469
:101680001022DA710319A8339B795B070DD5714AD3
:10169000147063017049CB185B681B019B0C53806D
:1016A0002301C318DB6A00219847AB0600D4F8E198
:1016B000674A0123A340116899431160624B18687F
:1016C000231C08335B010268944663442022DA71CC
:1016D0000319A8339B791B0700D4E2E15D490C7024
:1016E00024010419236B9847DBE1AC8BA4B2630798
:1016F00008D50423AB83A133FB5CDB0702D57B68F1
:10170000381C984723070DD50022514B1A604E4BC9
:1017100018680823026893839D33C35C9B0701D537
:101720008368984763060AD5474B186840230268C8
:1017300093836533C35CDB0601D543699847A306F1
:101740000AD5414B18682023026893838533C35C14
:101750001B0701D503699847E3060AD53A4B186879
:101760001023026893839533C35C5B0701D5C3687C
:10177000984723060DD50022354B1A60324B186866
:101780008023026893832533C35C9B0601D583695C
:101790009847E3050ED500222D4B1A602A4B186896
:1017A00080235B00026893835B3BC35C5B0601D5CF
:1017B000C3699847A30500D473E10022244B1A6043
:1017C000214B186880239B00026893835C3BFF3B9E
:1017D000C35C7F2B00D864E1036A984761E12E8CDB
:1017E000B6B2002E40D1AE8BB6B2AB235B00FD5A31
:1017F0003540023BFB5A1D400024194F124B9946BD
:1018000098466300DB5B1E4203D04A4612681268AA
:1018100093831D4213D0062C07D10F4B1B891A0945
:1018200080235B0013400F4A1360231C2E339B0060
:10183000424612689B58424610680A49984701344C
:10184000072CDED12DE1C0464C0000206541000090
:101850004000002038000020C00E0020FF3F00F0B4
:1018600084420000340000203C1C5934FF34002323
:10187000012294465F329146503A9246043A93468A
:10188000B8462F1CD8B20193321C1A41614611424E
:1018900000D101E11A1C08325201BA18D279D2B231
:1018A000217A2578294011404D4615422AD03D1C09
:1018B00047465B01ED180823FF33EB5C5B0609D557
:1018C00040220823FF33EA54883BFF3B0343784A16
:1018D00093710AE00823FF33EB5C9B0605D52022B9
:1018E0000823FF33EA54724B987160230B4200D1F6
:1018F000D7E0019B1B01FB18DC335B68381C6C498B
:101900009847CEE0554615421FD03D1C4746019AE8
:10191000131C08335B01ED181023EB71BB18613306
:10192000FF331B78DB0600D4BBE0101C5301614A77
:10193000D3185B689B049B0C5D490B800301FB186B
:10194000D8335B6840469847ABE05D4615425FD0B0
:101950003D1C47468046019B5B01ED180823FF3381
:10196000EB5C1B0723D508220823FF33EA54019BB5
:101970005B01504AD31818339B789B0707D5019B0E
:101980005A014C4B9B189A7E022082439A76802300
:101990005B4242461343464A9371019B08335B0105
:1019A0003A6894466344DB799B0725D579E00823A0
:1019B000FF33EB5C5B071FD504220823FF33EA5497
:1019C000019B5B013B4AD31808339B789B0707D5E3
:1019D000019B5A01374B9B189A7A022082439A72D4
:1019E000334B42469A71019B08335B013A68944637
:1019F0006344DB79DB0754D40C230B4251D0019BA9
:101A00001B01FB18D4335B68381C2949984748E010
:101A10000325154240D03D1C47468046019B5B0193
:101A2000ED180823FF33EB5C9B0712D50222082335
:101A3000FF33EA541E4A883BFF3B03439371019BEB
:101A40005B011C48C31810335B689B049B0C5380DC
:101A500017E00823FF33EB5CDB0712D501220823D4
:101A6000FF33EA54124843468371019B5A01114BDC
:101A70009B185A689204920C02805B681B019B0CB5
:101A800083808B070DD0019B0D331B01FB185B6816
:101A9000381C0749984704E001330134082B00D073
:101AA000F0E603B03CBC90469946A246AB46F0BD7A
:101AB00044000020C00E002010B5144BD969144A10
:101AC0000A40DA619A690C218A4308390A439A610B
:101AD00010490B680F229343093A13430B600E4BD6
:101AE0001B78002B08D00D4CA0780130C0B2182113
:101AF0000B4B9847A17007E0084C60781430C0B2D7
:101B00003C21074B9847617010BDC046001400404F
:101B1000FFFEFFFF20180040B80D0020D00C002071
:101B20006D3F000010B50D4BDA69802149000A4372
:101B3000DA619A69F4398A439A6109490B680F227C
:101B400093430C3A13430B600720064CA047082030
:101B5000A047BFF34F8F30BF10BDC04600140040F8
:101B6000201800409537000004228023DB055A70BE
:101B70001A1C5378042BFCD10E4B9A690C218A4312
:101B800008390A439A61996940220A439A61D969DE
:101B900080220A43DA6132218022D205118106486F
:101BA000426814398A431C390A4342601A698A43DD
:101BB0001A6170470014004000400041F0B55F46D4
:101BC00056464D464446F0B487B002ACB0231B01E4
:101BD00023800026A670FA23DB00A3802049214B36
:101BE0009B46CB800B239A464B71022399460B717F
:101BF000132398468B701F274F700E700125E570D8
:101C00000E2068440822184B9847A573174D281CCE
:101C10001749221C174B9847281C174B98476B46AF
:101C20001E70DE705A46DA8052465A714A461A7160
:101C300042469A705F70281C6946104B9847281CD2
:101C40000F4908220F4B9847281C08210E4B984734
:101C500007B03CBC90469946A246AB46F0BDC04694
:101C6000D00C0020DF070000454200008800002063
:101C700000200040010E0000E10C0000A10D00005A
:101C8000B91A00006D0E00008D0E000010B51E4A3E
:101C9000642313601D4B53600023936013738021F2
:101CA0008903116101214942D18291822531535426
:101CB0009362083153540131535401315354D73393
:101CC0001386D63B1376124BD361124B1362124C20
:101CD000201C1249124B984722680721D3691942E8
:101CE000FCD1116802230B4313600B4BDC880023EB
:101CF000102005E00133A34202D31023538302E0F6
:101D0000518B0142F6D010BD680D0020480D000037
:101D100002001600020017005C0D0020000C0042BB
:101D2000850F000030B583B0041C01A900254D705B
:101D3000CD700D708D7011201F4B98471F4A516A4E
:101D40001F4B0B4053621F4B1D701F4902220B6833
:101D50001A42FCD11D4B1A6802210A431A601B6803
:101D6000194227D01A4B1A687E318A431A601A68C2
:101D700060390A431A601B68194203D1144B1B686F
:101D80001B0617D4134B1A6802210A431A601B68FA
:101D900019420FD002220B4B1A700B490B681A42E2
:101DA000FCD1084B1B789B0704D5201C0121002285
:101DB000094B984703B030BD713C0000002800403B
:101DC000FFFFFDFF002400400424004010240040D9
:101DD0001C24004018240040DD330000F0B55F46AD
:101DE00056464D464446F0B483B001AB4B4A127898
:101DF00001321A704A4A128801325A7000229A70CF
:101E00000024484F3E1C484B3A689A4208D9474B39
:101E10001B78013301221340444A137000233360BE
:101E200001ABE05C414B19783E4B1A68551C1D60B4
:101E30003F4B98470134032CE5D1384B1B78012BDD
:101E400025DD3C4C0125374F384B9946B846364B7B
:101E50003A689A4209D94B461B7801330122134054
:101E60004A46137000234246136063882088181A7C
:101E7000C0B22E4B19782B4B1A68561C1E602C4B87
:101E8000984701350234254B1B78AB42DFDC244BED
:101E900000229A5E012A3ADD0125224B9B469A4692
:101EA0005B461B68033320498B4209D91F4B1B78C3
:101EB000013301210B401D490B70002351460B607B
:101EC0001D4B9946985C194B98461978154C226819
:101ED000531C2360164FB847114E0022B35E4B448B
:101EE0005878434619782268531C2360B84700226B
:101EF000B35E4B449878434619782268531C23609C
:101F0000B8470135ADB20023F25E9542C8DB03B09D
:101F10003CBC90469946A246AB46F0BDDA0C002088
:101F2000CC0C0020CC0D0020FFFFFF1FDC0C00209C
:101F300039220000E00D0020CC000020F0B55F4603
:101F400056464D464446F0B493B0041C0191002718
:101F5000A74B1F70A74B1F6003AD80232B70EF7042
:101F600001266E707E3BAB701220291CA24B9A4654
:101F70009847A24B99468023DB024A4653610520CD
:101F8000291CD04710239B464B465A469A61042091
:101F9000291CD0474B465A469A61994D2C706F7058
:101FA000AF7002AB5E709F701E70201C191C954BA9
:101FB00098472B78D9090022002902D15A09D20169
:101FC0004A441F210B401E39081C9840906104AA06
:101FD0001170002353609360137453749174D1741F
:101FE00013750B930C93884B93612423D15488234E
:101FF0005B03D36001235B429362844BD362844BC7
:102000001363844B5363844D281C8449844B984745
:102010002A68D369002BFCD1116802330B4313608B
:102020000122804B1A70804B1E1C143600221A703D
:102030000133B342FBD18022D202704B9A617B4BB9
:10204000013B002BFCD1E309984663099946002324
:102050004246002A04D14B46DB01684A9446634459
:102060001F273C401E3FA7405F61FA239B00013BB6
:10207000002BFCD1684B1B6801211A7E0A42FCD060
:10208000012105201A7E0A4200D1A7E09F229A6210
:102090000021674A117004311A7E0A42FCD05E4D5D
:1020A000644C281C60491422FF23A047604B187021
:1020B0000028F6D15C4B1B78002B19D15A4A531CCF
:1020C00013321878002813D193420ED100234246D0
:1020D000002A04D14B46DB01484A944663449F6181
:1020E0008022D202454B5A617BE001339E42E8D107
:1020F00000224D4B1A706423013B002BFCD1424659
:10210000002A04D14B46DB013C4A944663449F615C
:102110006423013B002BFCD14246002A04D14B46EC
:10212000DB01364A944663445F616423013B002B24
:10213000FCD1019B002B2DD0374B1B6801211A7E4F
:102140000A42FCD00122197E1142FCD0C7229A62B9
:1021500001211A7E0A42FCD00122197E1142FCD0D4
:1021600005229A622C4B9A461D1C2F4C5346196827
:1021700004220B7E1342FCD02E4E281C211C01226F
:10218000FF23B0472A4B18700028F6D1264B1B7846
:10219000DB07EBD4254B013B002BFCD14246002A48
:1021A00004D14B46DB01154A944663449F6180226B
:1021B000D202124B5A61184B1A68D369002BFCD11A
:1021C000136802218B4313600023164A13700331F6
:1021D000074A1170074A1360012002E0144A107088
:1021E00050E713B03CBC90469946A246AB46F0BDC2
:1021F000DC0C0020CC0D0020713C000000280040C9
:10220000C80D0020713400001027000003000900F1
:1022100003000A0003000B00BC0D00200008004270
:102220008D290000C800002050000020FFFF0000A2
:10223000DC0D0020E12C0000F0B557464E46454627
:10224000E0B488B08046BC4B1B78002B0BD1BB4B55
:102250001868C369002BFCD1046802332343036070
:102260000120B54B18708020C002B54B9861B54B6A
:10227000013B002BFCD101AB02201870140CE4B21E
:102280005C70100AC0B29870D2B2DA7045461D7107
:1022900003236D462B706C70A870EA7003AB08A81E
:1022A00000221A7001338342FBD1CE094B099946B3
:1022B0000023002E04D14B46DB01A14A944663441F
:1022C0001F2529401E3D8D405D61FA239B00013B87
:1022D000002BFCD1994B1A680121137E0B42FCD0D4
:1022E0000121137E0B42FCD006239362FA239B004C
:1022F000013B002BFCD1002E04D14B46DB01904961
:102300008C4663449D616423013B002BFCD1002E6D
:1023100004D14B46DB018A498C4663445D61FA2354
:102320005B00013B002BFCD10121137E0B42FCD052
:1023300001210520137E0B4200D1F4E005239362B6
:102340000021814B1970FA239B00013B002BFCD12B
:102350000421137E0B42FCD07C4F7B4C774803A9B1
:102360001422FF23B84720700028F7D103AB1B7855
:10237000023018400CD10023002E03D14B46DF0160
:102380006F4BFB189D618022D2026D4B5A61CDE0EC
:10239000FA239B00013B002BFCD1002E04D14B46BD
:1023A000DB01674A944663449D616423013B002B33
:1023B000FCD1002E04D14B46DB01614A94466344B4
:1023C0005D61FA235B00013B002BFCD15B4B19687C
:1023D00001220B7E1342FCD0584F5D4C381C01A9E2
:1023E0000522A0470028F9D1FA235B00013B002B0E
:1023F000FCD1002E04D14B46DB01514A9446634484
:102400009D616423013B002BFCD1002E04D14B467F
:10241000DB014B4A944663445D61FA235B00013B58
:10242000002BFCD1454B1A680121137E0B42FCD0D6
:102430000123117E1942FCD0052393623F4B9A463B
:10244000424C5346196804220B7E1342FCD003AF62
:102450003A48391C1422FF23A0473B4B18703B78A5
:10246000DB07EED4374B013B002BFCD1002E04D10F
:102470004B46DB01324A944663449D616423013B31
:10248000002BFCD1002E04D14B46DB012C4A944694
:1024900063445D61FA235B00013B002BFCD1274BB9
:1024A000196801220B7E1342FCD0244F284C381CA3
:1024B00069460422A0470028F9D1204B196804225C
:1024C0000B7E1342FCD01D4F204B9A461E4C381CED
:1024D00003A91422FF23D04720700028F7D1FA2344
:1024E000DB00013B002BFCD1002E03D14B46DF016A
:1024F000134BFB189D618022D202114B5A610F4B86
:102500001A68D369002BFCD1136802218B43136036
:102510000022094B1A7003AB18784346C01A434295
:102520005841C0B202E0084B187003E708B01CBC69
:1025300090469946A246F0BDC8000020BC0D002080
:1025400000280040FFFF0000DC0D0020E12C00000F
:10255000ED2D0000F0B557464E464546E0B482B03A
:1025600001AD80232B7000240026EC707F3B984641
:102570006B700227AF701B20291C364B9A46984778
:10258000354B994680231B054A4653610120291C7F
:10259000D0474B465F610220291CD04704234A469E
:1025A00093612E4B8022D2051A605C60FF221A8153
:1025B0009C72DC72DB3A41469954013299540132E3
:1025C0009C5401329C549C6205329C545C611C8278
:1025D0000022DA761E761E775E7613229A765E7772
:1025E0001A329F54E12252021A62C4229203DA6024
:1025F000012252421A635A63194A9A63194ADA63EA
:10260000194D1C1C194E281C8421C905221CB047D9
:10261000174B18700028F6D1134B1A68D369002B9A
:10262000FCD1116802330B43136004220A4B5A6138
:102630000D4B1A68D369002BFCD1136802218B4320
:10264000136000220B4B1A7002B01CBC90469946D6
:10265000A246F0BD713C000000280040E00C0020C4
:102660000300060003000700BC00002079260000DC
:10267000DC0D0020DB0C0020F0B55F4656464D46D1
:102680004446F0B491B0061C0C1C151C3160081CAB
:10269000B34B9847021E052A03D0071C1237031CB0
:1026A00001E01827012321680520C90700D550E162
:1026B00021681730890700D54BE1052A06D1A949C1
:1026C0000A6A1B3898401043086205E0A549CA69A8
:1026D000012098401043C8610FA92D239846EB5C58
:1026E0000B70FFB2381CA04B9847381C9F4B984783
:1026F0004346E85C00219E4B9847EB7A7371242394
:10270000EB5CB3712523EB5CF371EB7E33722B7FB3
:10271000737233689A46181C914B98471230002206
:102720000E2306A98C4663441A802B8A994680237F
:10273000DB01994519D004D880239B0199450AD023
:10274000E8E0C023DB0199450AD080231B029945AC
:1027500000D1E4E0DEE0102398460F3B0793E2E06F
:1027600008239846073B0793DDE02B689B46EB6800
:1027700002936B6903932B7E04932623EB5C0593F2
:102780006A680692002A16D080235B059A4239D1E6
:102790002723EB5C002B39D12B6A9846C0B2754BCE
:1027A0009847011C40460E2206AB9C466244724B81
:1027B0009847031C27E00823984600230793272304
:1027C000EB5C002B0CD043460093286AA96A0E22CA
:1027D00006AB9C466244079B684FB847031C12E057
:1027E0002B6A1F1CC0B2634B9847011C43460093E1
:1027F000381C0E2206AB9C466244079B5F4FB847CD
:10280000031C00E00023181E00D0A2E06B7E002B0A
:1028100002D0AB7E524693733268069FD369002B79
:10282000FCD10E3306AA944663441B88524693811A
:10283000029B5A461343039A13433B434A461343AE
:10284000049A12021343059A57071F432723EB5C90
:10285000002B01D104331F432B7F59026A7E930260
:102860000B436A7F120213432422AA5C52041343CF
:102870002522AA5C12041343E97A19432B89FF2B02
:1028800004D0802252041743194305E0EB7E002B4D
:1028900002D08023DB041F432C23EB5C002B03D1ED
:1028A000374B9B789B0701D580231F433268D36940
:1028B000002BFCD1534659603268D369002BFCD100
:1028C00053461F600EAB80221A7000225A70DA70D5
:1028D0009A702B6B0A936B6B0B93AB6B0C93EB6B3C
:1028E00002930D9300270EAD264EF9B2BB000AAA43
:1028F0009858002802D1201C234B9847431C04D031
:102900002870000CC0B2291CB0470137042FECD14D
:1029100000201EE0102398460023079303E00323C2
:102920009846002307932B689B46EB6802936B69DC
:1029300003932B7E04932623EB5C05936A6806922F
:10294000002A00D13BE780235B059A4200D11FE7B4
:102950005CE711B03CBC90469946A246AB46F0BD40
:10296000A133000000040040753B00000D3B000057
:10297000E9310000993B0000F92F000021300000F0
:1029800000200041713C000035320000F0B55F4688
:1029900056464D464446F0B48BB0061C0D1C141C24
:1029A00031600B689B0700D4ABE0936A0593D36A50
:1029B0000693136B0793536B089300271F239946C5
:1029C000F9B2BB0005AA9858002802D1281CB94BBF
:1029D0009847431C2BD001040B0C9B46000CC3B240
:1029E0009C460023020605D463465B09DB01B24A1C
:1029F000904643444A46604602409818403000786A
:102A0000824680205146C9070BD552089B183033A7
:102A10001878C0B26346DB0701D5000901E00F2337
:102A20001840834503D0002333601C203BE101376D
:102A3000042FC5D11120A14B9847011C23780027F2
:102A4000012B11D1A06904AA9D4B9847031C1720A4
:102A5000002B00D027E12B7BDBB204AA12780530D3
:102A60009A4200D01FE10C3723789846002B16D1EC
:102A7000A3699C46A38B2A68E17F0904A07F0143D8
:102A80001C20914200D00EE12022A25C002A01D03D
:102A9000402213430822614611430F4300E0002304
:102AA000A26861680A43E1680A433A43217C0B4308
:102AB000617C002901D080210A43A17C002902D039
:102AC000802189020B43E17C002902D0802189000A
:102AD0000B43217D002902D0802189010B43286806
:102AE00002210A43824208D16A689A4205D14346CC
:102AF0007371237CB3710020D5E0002333601C2068
:102B0000D1E00B680520DB0700D5CCE0081C6D4B3D
:102B10009847052800D1BEE012239C4684446A49A8
:102B2000CB6901228240101C1843C86109A92427DF
:102B3000E35D0B7063466A46137113790193181CA9
:102B4000624B98470198624B9847E05D0021614BCA
:102B500098472378012B03D12A680B3313432B604A
:102B60002378002B03D12A68083313432B60336882
:102B7000994604AB80221A7000225A700121997084
:102B8000DA702378002B01D104AB9A70A36A059305
:102B9000E36A0693236B0793636B0893002704ADE6
:102BA000F9B2BB0005AA9858002802D14846414B0B
:102BB0009847431C05D02870000CC0B2291C464B16
:102BC00098470137042FEBD123787371237CB371BD
:102BD000A37CF371237D3372002202ABDA80237869
:102BE000012B15D13068374B98471230C0B2334BA8
:102BF0009847011CA06902AB9A1D314B9847031CF2
:102C00001720002B4FD102AB06331B784A461373B3
:102C10002378002B10D1A669A38B4A46506AE17F26
:102C20000904A57F2943014351622022A25C002AA6
:102C300004D040210B4301E000230026A268616814
:102C40000A43E1680A433243217C0B43617C00293B
:102C500003D122498978890701D580210A43A17CC3
:102C6000002902D0802189020B43E17C002902D097
:102C7000802189000B43217D002902D08021890118
:102C80000B43494609680A4349460A604A681343A8
:102C90004B60002007E00C4A116A02230B431362C9
:102CA00018239C4642E70BB03CBC90469946A2468E
:102CB000AB46F0BD3532000000280040993B0000D3
:102CC000F92F0000A133000000040040753B000014
:102CD0000D3B0000E9310000713C00000020004184
:102CE000F0B557464E464546E0B48C461721002ABB
:102CF00074D0C4790531002C70D04179002905D1F8
:102D000001680C7EA40701D502240C760027042557
:102D100035498946022188460139DB05DB0D9A4693
:102D20004479012C56D10668347E0C42FCD0347EA6
:102D30000C4214D05346B3624CE01E7E2E4202D1A8
:102D4000013C002CF9D10468267E43461E4203D084
:102D500002232376042141E0247E2C4232D00668EF
:102D6000347E2C42FCD0347E2C4214D0738B002451
:102D70002B4204D0738B04341C4374831E24837948
:102D8000012B03D1B66AF605F60D01E0B66AF6B27C
:102D9000002C03D000E01024211C1FE07C1CA4B2F6
:102DA0006346DE558379012B05D10237BFB2360A5F
:102DB00063461E5500E0271C013A92B2002AAFD1AB
:102DC00000210BE0122109E003681C7E2C42BAD1DD
:102DD0004C46B2E74479002CF6D0C0E7081C1CBC76
:102DE00090469946A246F0BD10270000F0B55F4618
:102DF00056464D464446F0B483B01723002A00D10E
:102E0000ECE04379002B05D103681C7EA40701D5B3
:102E100002241C769346002401230225AC46023589
:102E2000A9468EE04579002D17D107683D7E1D42E9
:102E300006D16E4D3E7E1E4202D1013D002DF9D1DC
:102E40000668357E67463D4203D00223337602335F
:102E5000C4E0357E1D4200D1B7E00668357E1D42D4
:102E6000FCD0651CADB2A8460D5D8779012F02D05C
:102E7000ADB2444605E00234A4B24746CF5D3F02FE
:102E80003D43377E1F4202D0ED05ED0DB562551E64
:102E9000ADB2C679002E57D04579002D37D1544FA9
:102EA000019105682E7E1E421CD0661CB1B2884678
:102EB0000199095D00918179012903D069460E8845
:102EC000444607E00234A4B24146019E715C090207
:102ED000009E0E43297E194202D0F605F60DAE6221
:102EE000013A92B20668357E49460D4202D1013F51
:102EF000002FD6D10199357E67463D4203D002238B
:102F0000337602336AE0357E4E4635425FD006683E
:102F1000357E4F463D42FBD0357E3D420DD0758B10
:102F20003D4204D0758B04273D43ADB2758385794E
:102F3000012D01D1B56A00E0B56A5D46013DADB233
:102F4000AB46013A92B200E02A1C2A4DAA4200D0B8
:102F500068E75A464379012B06D1016802220B7EAD
:102F60001342FCD0002339E0002B32D1C179002973
:102F700034D0002A1FD131E0227E0A4202D1013B27
:102F8000002BF9D103681A7E0A4224D01A7E0A4225
:102F90000CD05A8B0A4203D05A8B324392B25A83D6
:102FA0008279012A01D19B6A00E09B6A013FBFB28E
:102FB000002F04D111E004210C4D04265F46046863
:102FC000237E0B42DED12B1CD6E7122306E0122310
:102FD00004E0002302E0122300E00023181C03B0E9
:102FE0003CBC90469946A246AB46F0BD1027000077
:102FF00011270000FFFF000010B54908402481425E
:103000000CD30023091A01339BB28842FAD9013B41
:103010009BB24024FF2B01D813800024201C10BD3C
:10302000F0B55F4656464D464446F0B489B01C1C88
:1030300012AB1B78061C5E4340258E4200D9C7E0C8
:10304000251C07920C1C021C002D51D1181C0021BC
:103050000023634DA8478346261C00270023002435
:1030600002930394002200233F2020218C461F3925
:103070000096019720246442041903D40D1CA54036
:10308000A84604E06446241A0D1CE540A8460C1C22
:103090008440A146141C1D1CA4185D41221C2B1C3D
:1030A0005E4647463E4203D00E1C2643321C2B1C74
:1030B000019C9C4210D802D1009C94420CD8009CE8
:1030C000019D121BAB414D46029E039F35433C1CA4
:1030D00046463443029503940138CBD200220123A3
:1030E00002980399121A8B41110C1B0419436CE0CE
:1030F0000021012D69D1610F0F1CE1008846181CC9
:1031000000210023364CA047041C0D1C00239C46C4
:1031100020339B46012663460593B9466B461B7DCB
:10312000069300239C46002000213F220094019535
:1031300020235B42D31803D4341C9C40231C04E09E
:103140005B469B1A341CDC40231C371C9740041C34
:103150000D1C24184D41201C291C0290039144464B
:103160003C40A2464C4623405446234305D0029B94
:10317000039C1D1C3543281C211C019B8B420AD833
:1031800002D1009B834206D8009B019CC01AA1413A
:1031900063463B439C46013ACAD2009C019D62466D
:1031A0000599531ADB080F4A934208D9069A01324F
:1031B000D2B206920A1C01320592082AAED14025ED
:1031C000069A082A04D051031943079B1980002549
:1031D000281C09B03CBC90469946A246AB46F0BDBF
:1031E000A5410000FF1F000010B582B0041C0E4B6B
:1031F0001B78002B01D000290DD001A90C701120E3
:103200000A4B984711200A4B9847074B5C700122E4
:103210001A70002006E0044B5B78834201D01D2029
:1032200000E0002002B010BD64000020753B0000EB
:103230000D3B0000404B984234D007D88423DB0577
:1032400098420DD03D4B98421BD067E03C4B9842D2
:103250004AD03C4B984250D03B4B98425ED132E032
:10326000012906D000295BD0022906D0032906D007
:1032700001E036485FE000205DE035485BE035481E
:1032800059E0012906D000294CD0022906D0032993
:1032900006D001E030484EE000204CE02F484AE0E4
:1032A0002F4848E0012906D000293DD0022906D048
:1032B000032906D001E02B483DE000203BE02A48EE
:1032C00039E02A4837E0012906D000292ED002290A
:1032D00006D0032906D001E025482CE000202AE092
:1032E000244828E0244826E0022902D0032902D0FD
:1032F0001EE022481FE022481DE0012906D00029D7
:1033000018D0022906D0032906D001E01D4812E09A
:10331000002010E01C480EE01C480CE000200AE0F1
:103320001B4808E0032006E01A4804E01A4802E0BF
:10333000002000E0194870470008004200040042E5
:103340000010004200040043000C0042030005008E
:1033500003000600030007000300010003001E0035
:1033600003001F000300090003000A0003000B0014
:1033700003001100030012000300130003000E00FD
:1033800003000F00030017000300180003001900DA
:1033900003000400030008000300100003001600EF
:1033A00030B587B00C4B6A4632CB32C232CB32C218
:1033B000009B834206D001239A00694652588242FC
:1033C00003D100E00023D8B203E00133062BF3D190
:1033D000002007B030BDC046944200001723002AE9
:1033E0000DD18B00074A9B58002B03D189008850D0
:1033F000002304E0834201D01D2300E00023181CB9
:103400007047C046700E002070B50022154B1A7030
:1034100000231F25144E134C1F2B19D90FE0002138
:1034200000E012494A619B009B59002B00D098474D
:1034300023780133DBB223700F2BEDD911E0291C67
:10344000194001228A40002149691142E7D1EFE782
:10345000291C194001228A40044949691142E0D1DE
:10346000E6E770BDC00F0020700E00200024004071
:1034700000B583B001AB80221A700A785A704A787E
:103480009A708A78DA70191C014B984703B000BD16
:10349000713C00007047C0460C4B1B68002B10D1DC
:1034A000EFF31083002B09D172B6BFF35F8F0022B8
:1034B000074B1A700132074B1A7002E00022054BCD
:1034C0001A70024A136801331360704768000020C5
:1034D000140000206C000020084B1A68013A1A60A2
:1034E0001B68002B09D1064B1B78002B05D001224D
:1034F000044B1A70BFF35F8F62B6704768000020FC
:103500006C0000201400002008B5082803D88000B3
:103510001C4B1B589F46002032E01B4B18692FE0C4
:103520001A4B187D0007800F0130194B584327E0D4
:10353000154B586924E0144B1B68022018401FD01B
:10354000124980225200CB681342FCD00E4B1B68FC
:103550005B0714D500200F4B98470B4B9B681B044F
:103560001B0C58430CE02823084AD35C00209B071F
:1035700006D5054BD86803E08020000200E006482D
:1035800008BDC046AC42000070000020000C0040A6
:1035900000093D00993B0000006CDC02F0B5574685
:1035A0004E464546E0B41C4EB3699C4641780578CA
:1035B0000779C378994644798378012003409B00BA
:1035C0009A4604229046624643469A43131C52464A
:1035D0001A43131C0140C900082293430B434A4677
:1035E0000240920140218B4313430740FF01802298
:1035F00093433B43793A15402D02084F3B402B4300
:1036000004402003064C1C400443B4611CBC90469B
:103610009946A246F0BDC04600100040FFF8FFFFEB
:10362000FFEFFFFFF0B55F4656464D464446F0B407
:10363000254E73699C46457803785A425A41904614
:1036400083789A46C378477A027A9346847A4268A6
:103650001E48426101204246920090460422914653
:10366000624649468A439446424661460A43944626
:103670000340DB0008229046624641468A431343DA
:10368000514601400901102293430B435A46024020
:10369000920140218B4313430740FF018022934353
:1036A0003B43793A15402D02094F3B402B430440E0
:1036B0002003084C1C40044374613CBC904699466E
:1036C000A246AB46F0BDC04600100040700000208E
:1036D000FFF8FFFFFFEFFFFF082803D88000294B0A
:1036E0001B589F4617204BE0274A117D02230B43AE
:1036F0001375002044E0254A916902230B4393612E
:1037000000203DE0204A118A02230B43138200204F
:1037100036E01E4A516902230B43536100202FE01B
:103720001B490B68022213430B60174B1A83191CA9
:10373000FE32CB681342FCD0154A9168124B1962D5
:103740005268DA6100221A83191C0132FF32CB68F9
:103750001342FCD00E4B1B689BB20B4A1383002014
:103760000EE009492822885C022303438B54081C7D
:103770003821263A435C1342FCD1002000E00020AF
:103780007047C046D0420000000C004000100040CE
:1037900070000020082832D880001A4B1B589F4622
:1037A000194A137D02218B431375002028E0174A24
:1037B000936902218B439361002021E0124A138A0E
:1037C00002218B43138200201AE0104A5369022120
:1037D0008B435361002013E00D4B1A6802218A438A
:1037E0001A601B689BB2084A1383002008E0064950
:1037F00028228B5C022083438B54002000E017209A
:103800007047C046F4420000000C00400010004029
:1038100070000020F0B54F464646C0B489B0802203
:1038200052004E4B9A60FD3A4D4B9A604D4A536898
:103830001E218B4353608023DB059B78022B09D02C
:103840008023DB0501229A7101329A701A1C937948
:10385000002BFCD005A880231B0243600123C3700A
:1038600000228272037004214170837042720372DD
:103870003D4B984705203D4B98473D490122CB6879
:103880001A42FCD03A4A516980230B43536103A882
:10389000012545708570057107230370002444716C
:1038A000C570344B98470420304B98472B4B1A7DFA
:1038B000802149420A431A75197D40220A431A752C
:1038C0002D4B984701956B465C701C725C7205230A
:1038D0006A46137001206946284B98469847012094
:1038E000274FB84701956B465C70062399466B4697
:1038F0004A461A701C725C7202206946C047022058
:10390000B847204E34717471B47101956B465C7088
:103910004A461A705C721D7200206946C04700203A
:10392000B8470020184B98473379013BD840174BD4
:1039300098420ED88023DB059B78002B09D080238A
:10394000DB0501229A7100229A701A1C9379002BD0
:10395000FCD009B00CBC90469946F0BD000C00406C
:10396000001400400040004125360000D936000018
:10397000001000409D35000091390000B53900006D
:10398000613A000000040040A13A0000001BB700AB
:10399000064A516940230B4353610122044B1A70BC
:1039A000191C0B781342FCD17047C046000400403C
:1039B0000018004070B5041C0D784B78002B02D025
:1039C0008023DB001D434B7A002B02D080231B0198
:1039D0001D434A68012A17D9531E1A420FD1022AE1
:1039E00006D90223002001305B009A42FBD800E098
:1039F000002080235B011D430004054304E0120402
:103A000080239B001A4315430B7A002B02D080239E
:103A10009B011D430426A6400D490E4A4B681340E6
:103A20001E42FBD10C4B9847A400094B9C466444B2
:103A3000206A80235B001840284320626146054AC3
:103A40004B6813401E42FBD1044B984770BDC046E3
:103A500000180040FC07000099340000D934000031
:103A600010B5041C0422824009480A4943680B40EF
:103A70001A42FBD1084B9847A400054B9C4664446E
:103A8000236A8022520013432362044B984710BDDF
:103A900000180040FC07000099340000D9340000F1
:103AA000F8B5041C042282401248134943680B40B5
:103AB0001A42FBD1114B98470E4F0834A400E3592A
:103AC0000F2018400E4B9847061CE559ED04ED0FEA
:103AD000E459240C0B4B9847002D07D1012C07D932
:103AE000301C211C084B9847061C01E00134E640BD
:103AF000301CF8BD00180040FC070000993400009D
:103B000009350000D9340000613E000010B5041CE6
:103B1000084B9847A400084BE018802281584023A6
:103B20000B4383508021403A43581A42FCD0034B48
:103B3000984710BD9934000000180040D9340000A7
:103B400010B5041C084B9847A400084BE0188022CD
:103B5000835840218B4383504031403A43581A42A6
:103B6000FCD1034B984710BD993400000018004069
:103B7000D934000038B5041C0D1C054B98472B7830
:103B80000F2213402034A400024AA35038BDC0467F
:103B9000413B00000018004010B5041C064B98473C
:103BA0002034A400054BE3580F241C40044B9847D5
:103BB000201C044B984710BD9934000000180040A9
:103BC000D9340000A13A000030B5D378002B1ED1C3
:103BD0001478802C04D0240680235B021C4300E070
:103BE000002453780225AB430AD19378002B03D1EC
:103BF00080239B021C4302E0C023DB021C43416084
:103C00005378013B012B12D8184B1C400FE0416048
:103C10000B041B0CA024E405234383620B0CD0246B
:103C2000240623438362D378002B18D01CE00B04B6
:103C30001B0CA025ED052B43234383620B0CD025E1
:103C40002D062B4323438362D378002B0CD16303CF
:103C500005D59378012B01D1816100E04161537852
:103C6000013B012B00D8816030BDC046FFFFFBFF48
:103C700008B5031C0A1CC1090020002904D15809F9
:103C8000C00105498C4660441F210B401E399940F4
:103C9000024B984708BDC04600280040C93B0000C1
:103CA0007047C04608B5054B9847054B9847054BEC
:103CB0009847054B9847054B984708BD15380000B5
:103CC000953400001D0C00005D0C0000A13C0000BC
:103CD000FEE7C04610B51D4B1D4A9A4203D01D4B4E
:103CE0001A4A9A4204D31C4B1C4A9A4210D31EE033
:103CF0001B4A184B03339B1A9B0801339B0000227D
:103D0000124813498C58845004329A42FAD1EAE797
:103D1000144A114B03339B1A9B0801339B0000226A
:103D20000E4800211418216004329A42FAD10E4A3A
:103D3000FF210E4B8B4393600D4A516880230B4348
:103D400053600C4B98470C4B9847FEE7000000204F
:103D50003843000018000020C40F00201800002085
:103D6000040000201C00002000ED00E00000000026
:103D700000400041F9410000813D0000FEE7C046DF
:103D800070B5234B98470122224B1A70BFF35F8F07
:103D900062B6214B98472148214B984705200021C6
:103DA000204B9847204B9847204B9847204B9847EB
:103DB000204B9847802212051F4B9A611F4B984752
:103DC00000221F4B1A701F4C1F4E251C0023E25E61
:103DD000F8239B009A4203DC1C4B1B78472B05D928
:103DE000B04700232B80194B00221A70184B1A6819
:103DF000184B9A4208D9184A1378013301210B4015
:103E000013700022124B1A60144B9847DEE7C0462D
:103E1000A53C0000140000208D1C00007D3D00002A
:103E2000251D00003D1F000055250000050800006D
:103E3000691B0000BD1B00000028004015010000A8
:103E4000B80D0020CC0C0020DD1D0000DA0C002095
:103E5000CC0D0020FFFFFF1FDC0C0020251B000005
:103E6000002243088B4274D303098B425FD3030AB9
:103E70008B4244D3030B8B4228D3030C8B420DD3CC
:103E8000FF22090212BA030C8B4202D3121209025A
:103E900065D0030B8B4219D300E0090AC30B8B4298
:103EA00001D3CB03C01A5241830B8B4201D38B0346
:103EB000C01A5241430B8B4201D34B03C01A5241EB
:103EC000030B8B4201D30B03C01A5241C30A8B422E
:103ED00001D3CB02C01A5241830A8B4201D38B0219
:103EE000C01A5241430A8B4201D34B02C01A5241BD
:103EF000030A8B4201D30B02C01A5241CDD2C3092F
:103F00008B4201D3CB01C01A524183098B4201D3AA
:103F10008B01C01A524143098B4201D34B01C01A95
:103F2000524103098B4201D30B01C01A5241C3080D
:103F30008B4201D3CB00C01A524183088B4201D37C
:103F40008B00C01A524143088B4201D34B00C01A68
:103F50005241411A00D20146524110467047FFE7D4
:103F600001B5002000F0FCF802BDC0460029F7D0E2
:103F700003B5FFF775FF0EBC4243891A1847C046C8
:103F800003460B437FD4002243088B4274D30309BA
:103F90008B425FD3030A8B4244D3030B8B4228D35B
:103FA000030C8B420DD3FF22090212BA030C8B4281
:103FB00002D31212090265D0030B8B4219D300E021
:103FC000090AC30B8B4201D3CB03C01A5241830BA6
:103FD0008B4201D38B03C01A5241430B8B4201D356
:103FE0004B03C01A5241030B8B4201D30B03C01A7F
:103FF0005241C30A8B4201D3CB02C01A5241830AF9
:104000008B4201D38B02C01A5241430A8B4201D327
:104010004B02C01A5241030A8B4201D30B02C01A51
:104020005241CDD2C3098B4201D3CB01C01A5241B8
:1040300083098B4201D38B01C01A524143098B4241
:1040400001D34B01C01A524103098B4201D30B012A
:10405000C01A5241C3088B4201D3CB00C01A52414F
:1040600083088B4201D38B00C01A524143088B4214
:1040700001D34B00C01A5241411A00D201465241AD
:10408000104670475DE0CA0F00D04942031000D3CC
:104090004042534000229C4603098B422DD3030A21
:1040A0008B4212D3FC22890112BA030A8B420CD331
:1040B000890192118B4208D3890192118B4204D35A
:1040C00089013AD0921100E08909C3098B4201D3DA
:1040D000CB01C01A524183098B4201D38B01C01A14
:1040E000524143098B4201D34B01C01A524103098B
:1040F0008B4201D30B01C01A5241C3088B4201D33A
:10410000CB00C01A524183088B4201D38B00C01AE6
:104110005241D9D243088B4201D34B00C01A5241BD
:10412000411A00D20146634652415B10104601D34A
:104130004042002B00D54942704763465B1000D3D4
:10414000404201B5002000F00BF802BD0029F8D074
:1041500003B5FFF715FF0EBC4243891A1847C04646
:104160007047C046414208401C2101231B0498426D
:1041700001D3000C10391B0A984201D3000A0839F8
:104180001B09984201D30009043902A2105C401AAD
:104190007047C0461B1C1D1D1E1E1E1E1F1F1F1FFD
:1041A0001F1F1F1FF0B54F46464605042D0C2C1C43
:1041B000C0B41704160C3F0C9946030C7C4375439E
:1041C0005F4373437D19260CAD199C46AF4203D95A
:1041D00080235B029846C4444B4651434343240426
:1041E0002E0C240C2D0466442C1959188919201CF6
:1041F0000CBC90469946F0BD0E4B70B500251E1CB8
:104200000D4CE41AA410A54204D0AB00F358984713
:104210000135F8E700F080F8084B00251E1C084C1B
:10422000E41AA410A54204D0AB00F3589847013516
:10423000F8E770BD2443000024430000244300003D
:1042400028430000002310B5934203D0CC5CC45433
:104250000133F9E710BD0000036000002C170000D7
:104260002D0800002DF7000032343600389F000082
:104270002FED00002E1800002D0C000032333435D5
:1042800036370000040008007000800001000001C3
:10429000000200000000004200040042000800424A
:1042A000000C004200100042000400431A350000D8
:1042B000163500001635000078350000783500000E
:1042C000303500002035000036350000663500002E
:1042D00004370000E4360000E43600007E370000BA
:1042E000F636000012370000E836000020370000E4
:1042F00062370000BC370000FE370000FE370000C8
:10430000FE370000AE370000CA370000A0370000BB
:10431000D8370000EE370000F8B5C046F8BC08BC3E
:104320009E467047DD000000F8B5C046F8BC08BCEA
:084330009E467047B500000035
:10433800000000000C000000000000000000000069
:0843480000000000010000006C
:0400000300003CD5E8
:00000001FF
